:100000000C94FE030C94E90D0C941A0E0C944B0EF8
:100010000C947C0E0C94AD0E0C94DE0E0C940F0F11
:100020000C94400F0C942A040C942A040C942A0477
:100030000C942A040C942A040C942A040C942A0488
:100040000C942A040C942A040C942A040C942A0478
:100050000C942A040C942A040C942A040C94A50FE2
:100060000C942A040C94CD110C94F9120C942A04CB
:100070000C942A040C942A040C942A040C942A0448
:100080000C942A040C942A040C942A040C942A0438
:100090000C9406120C9438130C942A040C942A0421
:1000A0000C942A040C942A040C942A040C942A0418
:1000B0000C942A040C942A040C942A040C942A0408
:1000C0000C942A040C942A040C942A040C943F12D5
:1000D0000C9477130C942A040C9478120C94B61395
:1000E0000C942A0400002100240027002A002D007F
:1000F0003000330001010000040107010A01000083
:100100002200250028002B002E00310034000201BF
:100110000000050108010B0100002000230026005B
:1001200029002C002F00320000010000030106010D
:10013000090105050505070508080808020202026D
:100140000A0A080804040404010101010101010173
:100150000303030303030303040707070C0C0C0C3E
:100160000C0C0C0C02020202060606060606060627
:100170000B0B0B0B0B0B0B0B0102102020080810B4
:100180002040102040800201020108040201010207
:1001900004081020408080402010080402018004E0
:1001A000020180402010080402010804020101023B
:1001B0000408102040800102040810204080000044
:1001C000090A02080B0C0D070603040100000000D9
:1001D000000000000000000000000000000000001F
:1001E0000000000000000000000011100F000000DF
:1001F00000000000000000000000000000000000FF
:100200000000000000000000003E5B4F5B3E3E6BC4
:100210004F6B3E1C3E7C3E1C183C7E3C181C577DA0
:10022000571C1C5E7F5E1C00183C1800FFE7C3E7EC
:10023000FF0018241800FFE7DBE7FF30483A060EFE
:100240002629792926407F050507407F05253F5A45
:100250003CE73C5A7F3E1C1C08081C1C3E7F1422B5
:100260007F22145F5F005F5F06097F017F00668960
:10027000956A606060606094A2FFA29408047E04A6
:100280000810207E201008082A1C08081C2A0808CC
:100290001E101010100C1E0C1E0C30383E3830068C
:1002A0000E3E0E06000000000000005F0000000788
:1002B000000700147F147F14242A7F2A12231308B6
:1002C000646236495620500008070300001C224192
:1002D000000041221C002A1C7F1C2A08083E080836
:1002E00000807030000808080808000060600020E6
:1002F000100804023E5149453E00427F40007249C9
:100300004949462141494D331814127F102745456C
:1003100045393C4A49493141211109073649494982
:1003200036464949291E00001400000040340000F0
:100330000008142241141414141400412214080259
:10034000015909063E415D594E7C1211127C7F49CC
:100350004949363E414141227F4141413E7F494921
:1003600049417F090909013E414151737F0808084D
:100370007F00417F41002040413F017F081422411E
:100380007F404040407F021C027F7F0408107F3E78
:100390004141413E7F090909063E4151215E7F09E5
:1003A000192946264949493203017F01033F40404C
:1003B000403F1F2040201F3F4038403F6314081437
:1003C0006303047804036159494D43007F4141416F
:1003D0000204081020004141417F04020102044050
:1003E00040404040000307080020545478407F28D4
:1003F0004444383844444428384444287F385454CA
:10040000541800087E090218A4A49C787F080404EC
:100410007800447D40002040403D007F102844008B
:1004200000417F40007C047804787C08040478381C
:1004300044444438FC1824241818242418FC7C084C
:10044000040408485454542404043F44243C4040C9
:10045000207C1C2040201C3C4030403C442810287C
:10046000444C9090907C4464544C440008364100C5
:100470000000770000004136080002010204023C3F
:100480002623263C1EA1A161123A4040207A38540E
:100490005455592155557941215454784121555489
:1004A000784020545579400C1E52721239555555DA
:1004B00059395454545939555454580000457C41C5
:1004C0000002457D420001457C40F0292429F0F0DE
:1004D000282528F07C545545002054547C547C0A2F
:1004E000097F4932494949323248484832324A48FC
:1004F00048303A4141217A3A42402078009DA0A0FC
:100500007D39444444393D4040403D3C24FF24244F
:10051000487E4943662B2FFC2F2BFF0929F620C06C
:10052000887E090320545479410000447D413048BD
:10053000484A32384040227A007A0A0A727D0D1900
:10054000317D2629292F28262929292630484D4062
:1005500020380808080808080808382F10C8ACBA5E
:100560002F102834FA00007B000008142A142222DD
:10057000142A1408AA005500AAAA55AA55AA0000D0
:1005800000FF00101010FF00141414FF001010FFE3
:1005900000FF1010F010F0141414FC001414F700F5
:1005A000FF0000FF00FF1414F404FC141417101FC4
:1005B00010101F101F1414141F00101010F0000052
:1005C00000001F101010101F10101010F01000006D
:1005D00000FF101010101010101010FF100000007D
:1005E000FF140000FF00FF00001F10170000FC04B4
:1005F000F414141710171414F404F40000FF00F797
:1006000014141414141414F700F7141414171410F9
:10061000101F101F141414F4141010F010F0000028
:100620001F101F0000001F14000000FC140000F049
:1006300010F01010FF10FF141414FF141010101FEE
:1006400000000000F010FFFFFFFFFFF0F0F0F0F0FF
:10065000FFFFFF0000000000FFFF0F0F0F0F0F381C
:10066000444438447C2A2A3E147E02020606027E56
:10067000027E0263554941633844443C04407E2075
:100680001E2006027E020299A5E7A5991C2A492A86
:100690001C4C7201724C304A4D4D30304878483015
:1006A000BC625A463D3E494949007E0101017E2A0D
:1006B0002A2A2A2A44445F444440514A4440404440
:1006C0004A51400000FF0103E080FF000008086B72
:1006D0006B083612362436060F090F06000018186C
:1006E0000000001010003040FF0101001F01011E3A
:1006F00000191D1712003C3C3C3C00000000000F9C
:100700000180961180FFB103012C2DB203012C2D25
:10071000B306012C2D012C2DB40107C003A20284C5
:10072000C101C5C2020A00C3028A2AC4028AEEC5F8
:10073000010E20003601C83A0105022A0400020019
:10074000812B04000100A0022A040000007F2B047A
:100750000000009F04E010021C07123732292D29E7
:10076000252B3900010310E110031D07062E2C294B
:100770002D2E2E373F0000021013800A29806412AC
:100780000180321180FF3A81050AB1830006030A15
:10079000360108B6021502B40100C08202700AC117
:1007A0000105C2020102C5823C380AFC021115E0B3
:1007B0001009160920211B131917151E2B040502F9
:1007C0000EE1900B14081E221D181E1B1A242B0666
:1007D00006020F0A2A04000200812B040002008195
:1007E00013800A2980FF7C3C3E5E2B3D3F2F5B5DE2
:1007F0003B2C2A225C002C042015262011241FBE2D
:10080000CFEFD1E2DEBFCDBF00E00CBF14E0A0E02F
:10081000B2E0EEE7F3E700E00BBF02C007900D92F5
:10082000AC30B107D9F719E0ACE0B4E001C01D92DB
:10083000A837B107E1F717E0CCEFD7E004C0229763
:10084000FE010E94B939C63FD107C9F70E943E1682
:100850000C9433360C9400008EE094E066E047E0A0
:1008600028E00E94052010923D0410923E04109250
:100870003F041092400410924104109242041092DE
:1008800043041092440410924504109246041092BE
:100890004704109248041092490410924A0410929E
:1008A0004B0410924C040E94ED0F6093500470931F
:1008B000510480935204909353040895EF92FF9251
:1008C0000F931F930E94ED0F7B018C0180915804C0
:1008D00090915904A0915A04B0915B04E816F9066E
:1008E0000A071B0740F4E0925804F0925904009361
:1008F0005A0410935B048091580490915904A0917C
:100900005A04B0915B040097A105B10589F080916C
:10091000580490915904A0915A04B0915B048C50F2
:100920009E4FAF4FBF4F8E159F05A007B10750F4E4
:100930000E94C008E0925804F092590400935A04AF
:1009400010935B041F910F91FF90EF900895EF9229
:10095000FF920F931F930E94ED0F7B018C018091FA
:10096000540490915504A0915604B0915704E81690
:10097000F9060A071B0740F4E0925404F09255046C
:100980000093560410935704809154049091550499
:10099000A0915604B09157040097A105B10589F0C4
:1009A0008091540490915504A0915604B09157043D
:1009B0008C509E4FAF4FBF4F8E159F05A007B107BC
:1009C00050F40E94B408E0925404F092550400934D
:1009D0005604109357041F910F91FF90EF900895C4
:1009E000EF92FF920F931F93CF93DF93EC017B0164
:1009F00080E00E94710F20910503309106038C0165
:100A0000021B130B81E00E94710F209107033091AC
:100A10000803821B930B9C01C8010496099710F4EC
:100A200000E010E0C9010496099710F420E030E0DE
:100A3000C80160E870E00E94673979836883C90162
:100A400060E870E00E946739F701718360830E945B
:100A5000ED0F7B018C018091500490915104A09185
:100A60005204B0915304E816F9060A071B0740F434
:100A7000E0925004F09251040093520410935304F6
:100A80008091090390910A03A0910B03B0910C038C
:100A900020915004309151044091520450915304DC
:100AA000820F931FA41FB51F8E159F05A007B107C6
:100AB00010F080E019C0E0925004F09251040093CD
:100AC00052041093530484E00E949C1120E0892B6F
:100AD00009F421E080914F04882321F080E0222353
:100AE00009F481E020934F04DF91CF911F910F9182
:100AF000FF90EF90089584E060E00E94B61084E0DB
:100B000061E00E94691181E00E94710F90930603D9
:100B10008093050380E00E94710F909308038093F7
:100B20000703089582E297E065E00E948A22882305
:100B300009F4FFCF08950F931F930EE014E0C8014E
:100B400061E00E94D71FC80160E00E94781EC801C2
:100B500060E070E040E050E00E94EB1BC80160E004
:100B600070E00E94F71BC80161E00E94F11BC80100
:100B70006FE170E00E94E51D1F910F910895EF92C3
:100B8000FF920F931F93CF93DF93EC0180914D045D
:100B900090914E048C179D0789F1D0934E04C09319
:100BA0004D048EE094E060E070E044E950E020E81D
:100BB00030E00CE010E0E0EEEE2EE7E0FE2E0E94CA
:100BC000001E8EE094E061E00E94F11B8EE094E054
:100BD0006FE178EF0E94F71B8EE094E060E070E038
:100BE00046E950E00E94EB1B8EE094E061E00E9439
:100BF000F11B8EE094E0BE010E948A17DF91CF9135
:100C00001F910F91FF90EF90089580E092E00E9475
:100C1000BF050895AB01BC0186EA96E02AE030E00A
:100C20000E9428170895BC0186EA96E00E94871763
:100C300008954F925F927F928F929F92AF92BF9250
:100C4000CF92DF92EF92FF920F931F93DF93CF9398
:100C5000CDB7DEB728970FB6F894DEBF0FBECDBF75
:100C60004DB65EB680913A04882311F4772404C00F
:100C700010923A04772473941A8219821C821B8280
:100C80009091A90380915C049817F1F00E94950A55
:100C90004091AF035091B003569547958091610400
:100CA000909162042091B1033091B203369527955B
:100CB0006091630470916404621B730B841B950B39
:100CC0000E94E80877247394CE010196BE016D5FFF
:100CD0007F4F0E94F004D82E89819A81892B29F4B4
:100CE0008B819C81892B09F457C0E0905D04F090C2
:100CF0005E0400915F0410916004CE010596BE0170
:100D0000695F7F4F0E94CC08882309F445C08D811C
:100D10009E818A30910548F4E0905D04F0905E0475
:100D200020EE3FEFE20EF31E0DC08637910510F462
:100D300020E009C0E0905D04F0905E0480E290E065
:100D4000E80EF91E21E08F8198858A30910538F4EC
:100D500000915F0410916004005210400CC086376F
:100D6000910538F000915F0410916004005E1F4F00
:100D700002C0222339F0C701B8010E94E808772495
:100D800073940AC00E941B096B817C8189819A81BE
:100D90000E949D0B0E948709DD2009F4CEC081E0EE
:100DA00092E00E9413066091690470916A04809138
:100DB0006B0490916C040E940A0681E192E00E940B
:100DC00013066091650470916604809167049091A8
:100DD00068040E940A0683E192E00E9413060091D3
:100DE0006504B09066049090670480906804109148
:100DF0006904F0906A04D0906B04C0906C048091F8
:100E00003B0490913C04892BD9F485E192E00E9447
:100E1000130610934104F0924204D0924304C0920E
:100E2000440400933D04B0923E0490923F048092AB
:100E3000400481E090E090933C0480933B047DC0AB
:100E400082E292E00E941306E12E10934904F09290
:100E50004A04D0924B04C0924C04A02E0093450447
:100E6000B0924604909247048092480410923C0449
:100E700010923B0420913D0430913E0440913F0488
:100E80005091400460914104709142048091430468
:100E900090914404C92CD82C00914B0410914C041F
:100EA0000E94A40CAC0190930D0480930C041816BE
:100EB0001906DCF51DB70EB7F3E0880F991FFA95F8
:100EC000E1F72DB73EB7281B390B0FB6F8943EBF9C
:100ED0000FBE2DBF8DB79EB70196DC01FC0180E0EF
:100EE00090E00AC01082118212821382148215824D
:100EF00016821782019638968417950799F76091A4
:100F00000C0470910D04CD010E942A0C97FD04C0C1
:100F10008DE292E00E941306812F902F9C010FB664
:100F2000F8943EBF0FBE2DBF08C080E492E00E943F
:100F3000130610923C0410923B04772031F00E947B
:100F400058090E9487090E94050680913B049091F0
:100F50003C04892B19F48BE492E002C081E592E015
:100F60000E94BF050FB6F8945EBE0FBE4DBE289618
:100F70000FB6F894DEBF0FBECDBFCF91DF911F91AA
:100F80000F91FF90EF90DF90CF90BF90AF909F9028
:100F90008F907F905F904F900895CF92DF92EF9265
:100FA000FF920F931F93CF93DF9386EA96E040E87A
:100FB00055E260E070E00E94F51386EA96E065E590
:100FC00072E00E948A1786EA96E00E94D5140E9479
:100FD0009B050E9492050E947B050E948F08C0908D
:100FE0005C04CC2DD0E034E0CC0FDD1F3A95E1F766
:100FF00029E4C22E23E0D22ECC0EDD1EFE01E35BDF
:10100000FC4FD6011C966D917D918D919C911F97FF
:101010002081318142815381620F731F841F951F8C
:1010200022E030E040E050E00E949C3979018A01E2
:10103000CF5ADC4F688179818A819B81F6012081BA
:10104000318142815381620F731F841F951F22E0FB
:1010500030E040E050E00E949C39C801B7010E9496
:101060003A0A8091AF039091B0039695879540918D
:101070005D0450915E046091B1037091B203769566
:10108000679520915F0430916004620F731F840F95
:10109000951F0E944D0B81E080933A0482E060E04E
:1010A0000E94B61082E061E00E94691183E060E076
:1010B0000E94B61083E061E00E94691181E067EA56
:1010C00074E042E050E00E946D0D80E06EE574E057
:1010D00042E050E00E946D0D86EA96E061E672E023
:1010E0000E9487176DB77EB780917409909175093A
:1010F000009721F48091010390910203681B790B02
:1011000086EA96E04AE050E00E946817DF91CF91AE
:101110001F910F91FF90EF90DF90CF900895109264
:10112000650410926604109267041092680410928D
:10113000690410926A0410926B0410926C0410926D
:10114000620410926104109264041092630410927D
:101150005E0410925D041092600410925F0480910E
:10116000A90380935C0408958091A903853028F435
:101170008091A9038F5F8093A9038091A9030895AB
:101180008091A903882329F08091A903815080933D
:10119000A9038091A9030895FC01DB0180916104FA
:1011A0009091620420915D0430915E04821B930B48
:1011B00091838083809163049091640420915F0403
:1011C00030916004821B930B8D939C9381E0089572
:1011D00097FF03C0E0E0F0E010C0E0915C04F0E0B5
:1011E000EE0FFF1FE35FFC4F0190F081E02DE05810
:1011F000F0408E179F0708F4FC01F0935E04E09323
:101200005D0477FF03C060E070E010C0E0915C0413
:10121000F0E0EE0FFF1FE75EFC4F0190F081E02D44
:10122000E05AF040E617F70708F4BF017093600436
:1012300060935F040895AF92BF92CF92DF92EF92D6
:10124000FF920F931F9340916104509162044250AA
:1012500050402091630430916404225030408091CA
:101260005C0466E0869FC001112460915D0470916A
:101270005E048A01061B170B60915F047091600485
:101280007901E61AF70A8B5D9C4F6EE074E0F5E099
:10129000CF2ED12CE5E0AE2EB12C0E946D321F91E5
:1012A0000F91FF90EF90DF90CF90BF90AF90089597
:1012B000AF92BF92CF92DF92EF92FF920F931F9364
:1012C00080915C0426E0829FC001112440915D045E
:1012D00050915E0420915F04309160048B5D9C4FBF
:1012E0006EE074E000E010E0EE24FF24B0E8CB2EC6
:1012F000D12CA0EAAA2EB12C0E946D321F910F9121
:10130000FF90EF90DF90CF90BF90AF9008950F9334
:101310001F93609161047091620480915D049091CB
:101320005E04681B790B40916304509164048091C2
:101330005F0490916004481B590B8EE094E022E01A
:1013400030E000E018EF0E94E8181F910F91089517
:10135000AF92BF92CF92DF92EF92FF920F931F93C3
:101360005A016B01A82FBB27A7FDB09500D00F92A3
:1013700069E473E0FD0184E0EE0FFF1F8A95E1F759
:10138000E60FF71F2081318142815381AA0FBB1FD5
:10139000CD01019613E0880F991F1A95E1F7680FA8
:1013A000791FFB01E080F18002811381A75EBC4FB1
:1013B0008D919C91A0E0B0E0EDB7FEB78183928360
:1013C000A383B483C601B501AA24BB2465010E948E
:1013D0009D170F900F900F900F901F910F91FF90FE
:1013E000EF90DF90CF90BF90AF900895AF92BF92F3
:1013F000CF92DF92EF92FF920F931F935A016B01EE
:10140000A82FBB27A7FDB09500D00F92FD0104E0E7
:10141000EE0FFF1F0A95E1F789E493E0E80FF91F4B
:101420002481358146815781E484F58406851785BA
:10143000AA0FBB1FA35FBC4F8D919C91A0E0B0E0B1
:10144000EDB7FEB781839283A383B483C601B50150
:10145000AA24BB2465010E949D170F900F900F9046
:101460000F901F910F91FF90EF90DF90CF90BF9062
:10147000AF900895AF92BF92CF92DF92EF92FF921A
:101480000F931F937B018C0159016A0180915C04C9
:10149000B801A7010E94F60970935E0460935D0491
:1014A00080915C04B601A5010E94A80920915D0409
:1014B00030915E0437FF03C0E0E0F0E010C0E0913F
:1014C0005C04F0E0EE0FFF1FE35FFC4F0190F08142
:1014D000E02DE058F0402E173F0708F4F901F09393
:1014E0005E04E0935D0477FF03C060E070E010C02D
:1014F000E0915C04F0E0EE0FFF1FE75EFC4F01900F
:10150000F081E02DE05AF040E617F70708F4BF013C
:101510007093600460935F041F910F91FF90EF90B0
:10152000DF90CF90BF90AF9008958091A9038093F2
:101530005C04409165045091660460916704709169
:1015400068040E94F60970936204609361044091FC
:10155000690450916A0460916B0470916C048091ED
:101560005C040E94A80970936404609363048091F2
:101570005C040895AF92BF92CF92DF92EF92FF92F8
:101580000F931F93A82FBB27A7FDB09500D00F92F4
:10159000CD01880F991FFC01E75EFC4FE080F180D0
:1015A00000E010E0E9E4F3E034E0AA0FBB1F3A9555
:1015B000E1F7AE0FBF1FAD90BD90CD90DC900196CE
:1015C00023E0880F991F2A95E1F7E80FF91F808122
:1015D0009181A281B381EDB7FEB781839283A3830A
:1015E000B483CB01BA0120E030E040E050E00E943B
:1015F0009D170F900F900F900F901F910F91FF90DC
:10160000EF90DF90CF90BF90AF900895AF92BF92D0
:10161000CF92DF92EF92FF920F931F93992787FD4E
:10162000909500D00F92FC01EE0FFF1FE35FFC4F7F
:10163000E080F18000E010E0B4E0880F991FBA95D7
:10164000E1F7E9E4F3E0DF01A80FB91F1496AD90CC
:10165000BD90CD90DC901797E80FF91F8485958594
:10166000A685B785EDB7FEB781839283A383B48344
:10167000CB01BA0120E030E040E050E00E949D172D
:101680000F900F900F900F901F910F91FF90EF9080
:10169000DF90CF90BF90AF90089597FF03C080E098
:1016A00090E00EC0E0915C04F0E0EE0FFF1FE35FFE
:1016B000FC4F0190F081E02DE817F90708F4CF0105
:1016C000909362048093610477FF03C060E070E050
:1016D0000EC0E0915C04F0E0EE0FFF1FE75EFC4FF0
:1016E0000190F081E02DE617F70708F4BF01709331
:1016F000640460936304AC0160E070E080915C047A
:101700000E94060B609365047093660480936704DF
:1017100090936804409163045091640460E070E029
:1017200080915C040E94BA0A6093690470936A0411
:1017300080936B0490936C040895409161045091E0
:1017400062042091630430916404260F371F840FD4
:10175000951FB9010E944D0B08954F925F926F92B1
:101760007F928F929F92BF92CF92DF92EF92FF92E1
:101770000F931F93CF93DF934B016A012901380127
:101780007C01E60EF71E00E010E0E801C80DD91D4F
:10179000F701B080BB2099F0C201801B910B02972A
:1017A000A0F06B2D772767FD7095C3010E9443362B
:1017B0000F5F1F4F0894E11CF11C009711F0219658
:1017C00004C0F601B1926F01E0CFF6011082CE01A4
:1017D000DF91CF911F910F91FF90EF90DF90CF900D
:1017E000BF909F908F907F906F905F904F900895E3
:1017F000EF92FF920F931F93CF93DF938C017B01A6
:10180000C0E0D0E00894E108F10815C086EA96E04F
:101810000E947B14892BD1F386EA96E00E94AC14D7
:10182000F801EC0FFD1F80838D3041F08A3031F0DC
:10183000882321F02196CE15DF0540F30C0F1D1FE4
:10184000F8011082CE01DF91CF911F910F91FF908F
:10185000EF9008956F927F928F929F92AF92BF9276
:10186000CF92DF92EF92FF920F931F93DF93CF936C
:10187000CDB7DEB7C85CD0400FB6F894DEBF0FBE60
:10188000CDBF3B017C01CC24DD244E010894811C9A
:10189000911C85E6A82EB12CAC0EBD1E39C086EA7F
:1018A00096E064EC72E00E948717C40164E670E081
:1018B0000E94F80BC40160E070E0A50124E630E06E
:1018C00007EC12E00E94AD0BF5018081873519F01D
:1018D0002FEF3FEF22C0F5012181332727FD3095FF
:1018E000432F532F8281992787FD9095A92FB92FD8
:1018F000F70184839583A683B78320833183428352
:1019000053830894C11CD11C88E090E0E80EF91EB6
:10191000C614D70424F220E030E0C901C853DF4FD9
:101920000FB6F894DEBF0FBECDBFCF91DF911F91F0
:101930000F91FF90EF90DF90CF90BF90AF909F906E
:101940008F907F906F9008958F929F92AF92BF92E9
:10195000CF92DF92EF92FF920F931F93DF93CF937B
:10196000CDB7DEB7C85DD0400FB6F894DEBF0FBE6E
:10197000CDBFE9EC8E2E912C8C0E9D1ED4012C93A4
:1019800011963C93119712964C93129713965C9371
:10199000139714966C93149715967C931597169637
:1019A0008C93169717969C93FE01EF52FF4FA082DF
:1019B000B182C282D382E482F582068317838DB717
:1019C0009EB744970FB6F8949EBF0FBE8DBF2DB73C
:1019D0003EB72F5F3F4F8E010F5F1F4FADB7BEB7B2
:1019E00012961C930E93119789EC92E0D9011396ED
:1019F0009C938E931297D40114964D915D916D91A5
:101A00007C911797D90114964D935D936D937C93B8
:101A10001797D4014D915D916D917C91D9011896E4
:101A20004D935D936D937C931B97448155816681A3
:101A300077811C964D935D936D937C931F97808166
:101A40009181A281B381F901808B918BA28BB38BA1
:101A50000E945D368DB79EB744960FB6F8949EBF30
:101A60000FBE8DBF86EA96E0B8010E948717C801B5
:101A700064E670E00E94F80B95E6E92EF12CEC0E7E
:101A8000FD1EC80160E070E0A70124E630E007EC2D
:101A900012E00E94AD0BD7018C918E3419F040E01A
:101AA00050E006C0F7018181482F552747FD50952A
:101AB000CA01C852DF4F0FB6F894DEBF0FBECDBFCC
:101AC000CF91DF911F910F91FF90EF90DF90CF901A
:101AD000BF90AF909F908F900895883008F078C0A5
:101AE000E82FF0E0EE0FFF1FE359FB4F7183608397
:101AF0008330D9F0843030F4813009F444C082302E
:101B000060F439C0853051F18530D8F0863009F461
:101B100046C0873009F05CC04FC0809169008C7F5F
:101B2000842B80936900E89A089580916900440F9E
:101B3000551F440F551F837F842B80936900E99ABA
:101B400008958091690074E0440F551F7A95E1F77C
:101B50008F7C842B80936900EA9A089580916900B4
:101B600066E0440F551F6A95E1F78F73842B8093CD
:101B70006900EB9A089580916A008C7F842B809392
:101B80006A00EC9A089580916A00440F551F440F33
:101B9000551F837F842B80936A00ED9A089580916E
:101BA0006A0024E0440F551F2A95E1F78F7C842BAF
:101BB00080936A00EE9A089580916A0096E0440F3F
:101BC000551F9A95E1F78F73842B80936A00EF9AE3
:101BD00008951F920F920FB60F920BB60F92112419
:101BE0002F933F934F935F936F937F938F939F9325
:101BF000AF93BF93EF93FF93809171049091720420
:101C0000892B29F0E0917104F09172041995FF91EC
:101C1000EF91BF91AF919F918F917F916F915F9164
:101C20004F913F912F910F900BBE0F900FBE0F90D1
:101C30001F9018951F920F920FB60F920BB60F922E
:101C400011242F933F934F935F936F937F938F93C1
:101C50009F93AF93BF93EF93FF9380917304909101
:101C60007404892B29F0E0917304F09174041995A0
:101C7000FF91EF91BF91AF919F918F917F916F9164
:101C80005F914F913F912F910F900BBE0F900FBE20
:101C90000F901F9018951F920F920FB60F920BB6D0
:101CA0000F9211242F933F934F935F936F937F93E2
:101CB0008F939F93AF93BF93EF93FF93809175049E
:101CC00090917604892B29F0E0917504F0917604C7
:101CD0001995FF91EF91BF91AF919F918F917F9156
:101CE0006F915F914F913F912F910F900BBE0F908D
:101CF0000FBE0F901F9018951F920F920FB60F9264
:101D00000BB60F9211242F933F934F935F936F93D2
:101D10007F938F939F93AF93BF93EF93FF938091A4
:101D2000770490917804892B29F0E0917704F09161
:101D300078041995FF91EF91BF91AF919F918F9189
:101D40007F916F915F914F913F912F910F900BBEBB
:101D50000F900FBE0F901F9018951F920F920FB605
:101D60000F920BB60F9211242F933F934F935F93D3
:101D70006F937F938F939F93AF93BF93EF93FF9353
:101D800080916D0490916E04892B29F0E0916D048F
:101D9000F0916E041995FF91EF91BF91AF919F91D2
:101DA0008F917F916F915F914F913F912F910F9004
:101DB0000BBE0F900FBE0F901F9018951F920F92A1
:101DC0000FB60F920BB60F9211242F933F934F93A0
:101DD0005F936F937F938F939F93AF93BF93EF9393
:101DE000FF9380916F0490917004892B29F0E0910A
:101DF0006F04F09170041995FF91EF91BF91AF912D
:101E00009F918F917F916F915F914F913F912F9112
:101E10000F900BBE0F900FBE0F901F9018951F9242
:101E20000F920FB60F920BB60F9211242F933F9380
:101E30004F935F936F937F938F939F93AF93BF93D2
:101E4000EF93FF938091790490917A04892B29F084
:101E5000E0917904F0917A041995FF91EF91BF9187
:101E6000AF919F918F917F916F915F914F913F9132
:101E70002F910F900BBE0F900FBE0F901F901895D3
:101E80001F920F920FB60F920BB60F9211242F9341
:101E90003F934F935F936F937F938F939F93AF93F2
:101EA000BF93EF93FF9380917B0490917C04892BE7
:101EB00029F0E0917B04F0917C041995FF91EF915A
:101EC000BF91AF919F918F917F916F915F914F9152
:101ED0003F912F910F900BBE0F900FBE0F901F9050
:101EE0001895382F863308F0365320917B00832FC6
:101EF00086958695869590E08170907043E0880F76
:101F0000991F4A95E1F7277F282B20937B00377094
:101F10008091AA038295880F880F807C832B809301
:101F20007C0080917A00806480937A0080917A00AE
:101F300086FDFCCF2091780040917900942F80E0BD
:101F400030E0282B392BC90108951F920F920FB64C
:101F50000F9211242F933F938F939F93AF93BF932F
:101F60008091810490918204A0918304B0918404B3
:101F7000309185040196A11DB11D232F2D5F2D37B2
:101F800020F02D570196A11DB11D2093850480934B
:101F9000810490938204A0938304B093840480917D
:101FA0007D0490917E04A0917F04B09180040196FD
:101FB000A11DB11D80937D0490937E04A0937F04A6
:101FC000B0938004BF91AF919F918F913F912F91DA
:101FD0000F900FBE0F901F9018958FB7F894209117
:101FE00081043091820440918304509184048FBF16
:101FF000B901CA0108959B01AC017FB7F8948091A3
:102000007D0490917E04A0917F04B091800466B518
:10201000A89B05C06F3F19F00196A11DB11D7FBFA0
:10202000BA2FA92F982F8827860F911DA11DB11DAA
:1020300062E0880F991FAA1FBB1F6A95D1F7BC01E8
:102040002DC0FFB7F89480917D0490917E04A091FB
:102050007F04B0918004E6B5A89B05C0EF3F19F05E
:102060000196A11DB11DFFBFBA2FA92F982F882758
:102070008E0F911DA11DB11DE2E0880F991FAA1FAF
:10208000BB1FEA95D1F7861B970B885E9340C8F279
:10209000215030404040504068517C4F211531055F
:1020A0004105510571F60895789484B5826084BD28
:1020B00084B5816084BD85B5826085BD85B581604C
:1020C00085BDEEE6F0E0808181608083E1E8F0E0AC
:1020D0001082808182608083808181608083E0E8DB
:1020E000F0E0808181608083E1EBF0E080818460BA
:1020F0008083E0EBF0E0808181608083E1E9F0E0C3
:10210000808182608083808181608083E0E9F0E06B
:10211000808181608083E1EAF0E080818260808359
:10212000808181608083E0EAF0E08081816080834B
:10213000E1E2F1E080818260808380818160808340
:10214000E0E2F1E0808181608083EAE7F0E0808175
:1021500084608083808182608083808181608083CD
:102160008081806880831092C1000895CF93DF93AF
:10217000482F50E0CA0188589E4FFC0134914E5CB4
:102180005E4FFA018491882369F190E0880F991FCE
:10219000FC01EC51FF4FA591B491FC01E250FF4FBF
:1021A000C591D491662351F42FB7F8948C91932F55
:1021B000909589238C93888189230BC0623061F4C8
:1021C0002FB7F8948C91932F909589238C938881C5
:1021D000832B88832FBF06C09FB7F8948C91832BE5
:1021E0008C939FBFDF91CF910895893009F449C046
:1021F0008A30A0F4843051F1853040F4823079F196
:10220000833000F5813009F063C026C0873079F152
:10221000883098F5863009F05BC025C08D3009F410
:1022200042C08E3028F48B30B1F18C30C0F52DC017
:10223000803109F442C0813109F445C08F3009F082
:1022400047C037C0809180008F7703C080918000A5
:102250008F7D80938000089584B58F7702C084B508
:102260008F7D84BD08958091B0008F7703C08091E9
:10227000B0008F7D8093B0000895809190008F779B
:1022800007C0809190008F7D03C080919000877F70
:102290008093900008958091A0008F7707C080916F
:1022A000A0008F7D03C08091A000877F8093A00055
:1022B0000895809120018F7703C0809120018F7D48
:1022C00080932001089580912001877F80932001D1
:1022D0000895FF920F931F93F62E482F50E0CA01E6
:1022E00082549E4FFC012491CA0188589E4FFC01E4
:1022F00014914E5C5E4FFA0104910023C9F0222331
:1023000019F0822F0E94F510E02FF0E0EE0FFF1F72
:10231000E250FF4FA591B4919FB7F894FF2021F4AC
:102320008C911095812302C08C91812B8C939FBF3F
:102330001F910F91FF9008950F931F93482F50E026
:10234000CA0182549E4FFC012491CA0188589E4FB5
:10235000FC0104914E5C5E4FFA011491112319F4B3
:1023600020E030E015C0222319F0822F0E94F510E2
:10237000812F90E0880F991F885E9E4FFC01A591E8
:10238000B4918C9120E030E0802311F021E030E026
:10239000C9011F910F91089508951F920F920FB6D2
:1023A0000F920BB60F9211242F933F934F938F935D
:1023B0009F93EF93FF934091C6002091C604309104
:1023C000C7042F5F3F4F2F7330708091C8049091E6
:1023D000C9042817390759F0E091C604F091C704E1
:1023E000EA57FB4F40833093C7042093C604FF9104
:1023F000EF919F918F914F913F912F910F900BBE35
:102400000F900FBE0F901F90189508951F920F9276
:102410000FB60F920BB60F9211242F933F934F9349
:102420008F939F93EF93FF934091CE0020914E05A1
:1024300030914F052F5F3F4F2F73307080915005C3
:10244000909151052817390759F0E0914E05F09108
:102450004F05E25FFA4F408330934F0520934E05BE
:10246000FF91EF919F918F914F913F912F910F90FD
:102470000BBE0F900FBE0F901F90189508951F92DE
:102480000F920FB60F920BB60F9211242F933F931A
:102490004F938F939F93EF93FF934091D60020919A
:1024A000D6053091D7052F5F3F4F2F733070809145
:1024B000D8059091D9052817390759F0E091D6052C
:1024C000F091D705EA56FA4F40833093D705209311
:1024D000D605FF91EF919F918F914F913F912F9151
:1024E0000F900BBE0F900FBE0F901F901895089580
:1024F0001F920F920FB60F920BB60F9211242F93CB
:102500003F934F938F939F93EF93FF9340913601A7
:1025100020915E0630915F062F5F3F4F2F73307022
:1025200080916006909161062817390759F0E09173
:102530005E06F0915F06E25EF94F408330935F06DE
:1025400020935E06FF91EF919F918F914F913F9164
:102550002F910F900BBE0F900FBE0F901F901895EC
:10256000E091B206F091B306E05CFF4F819191914A
:1025700020813181821B930B8F739070892B11F016
:102580000E94CC11E091D106F091D206E05CFF4FA1
:102590008191919120813181821B930B8F73907077
:1025A000892B11F00E940512E091F006F091F106DE
:1025B000E05CFF4F8191919120813181821B930BCF
:1025C0008F739070892B11F00E943E12E0910F07DB
:1025D000F0911007E05CFF4F819191912081318152
:1025E000821B930B8F739070892B11F00E947712CE
:1025F00008951F920F920FB60F920BB60F921124EF
:102600002F933F938F939F93EF93FF9320910A050E
:1026100030910B0580910C0590910D052817390715
:1026200031F48091C1008F7D8093C10014C0E0918E
:102630000C05F0910D05E653FB4F208180910C05B0
:1026400090910D0501968F73907090930D05809376
:102650000C052093C600FF91EF919F918F913F91C0
:102660002F910F900BBE0F900FBE0F901F901895DB
:102670001F920F920FB60F920BB60F9211242F9349
:102680003F938F939F93EF93FF9320919205309107
:10269000930580919405909195052817390731F499
:1026A0008091C9008F7D8093C90014C0E09194058A
:1026B000F0919505EE5AFA4F208180919405909102
:1026C000950501968F73907090939505809394056E
:1026D0002093CE00FF91EF919F918F913F912F9189
:1026E0000F900BBE0F900FBE0F901F9018951F926A
:1026F0000F920FB60F920BB60F9211242F933F93A8
:102700008F939F93EF93FF9320911A0630911B06AE
:1027100080911C0690911D062817390731F480918D
:10272000D1008F7D8093D10014C0E0911C06F09100
:102730001D06E652FA4F208180911C0690911D06DD
:1027400001968F73907090931D0680931C062093C2
:10275000D600FF91EF919F918F913F912F910F9014
:102760000BBE0F900FBE0F901F9018951F920F92E7
:102770000FB60F920BB60F9211242F933F938F93A6
:102780009F93EF93FF932091A2063091A30680912F
:10279000A4069091A5062817390731F480913101DC
:1027A0008F7D8093310114C0E091A406F091A506BD
:1027B000EE59F94F20818091A4069091A5060196CB
:1027C0008F7390709093A5068093A4062093360192
:1027D000FF91EF919F918F913F912F910F900BBEA1
:1027E0000F900FBE0F901F901895AF92BF92DF927F
:1027F000EF92FF920F931F93CF93DF93EC017A0137
:102800008B01DD24403081EE580780E0680780E0CE
:10281000780711F0DD24D39491E0A92EB12CEC8936
:10282000FD89DD2069F0C5010E8C02C0880F991F5B
:102830000A94E2F7808360E079E08DE390E005C0E0
:10284000108260E874E88EE190E0A80197010E9490
:102850007A39215030404040504056954795379541
:10286000279580E12030380720F0DD2011F0DD24AD
:10287000D6CFE889F9893083EA89FB892083EE89FC
:10288000FF89408121E030E0C9010A8C02C0880F35
:10289000991F0A94E2F7482B4083EE89FF89408113
:1028A000C9010B8C02C0880F991F0A94E2F7482BCC
:1028B0004083EE89FF894081C9010C8C02C0880FDA
:1028C000991F0A94E2F7482B4083EE89FF898081A3
:1028D0000D8C02C0220F331F0A94E2F720952823A3
:1028E0002083DF91CF911F910F91FF90EF90DF90A8
:1028F000BF90AF900895DC011C96ED91FC911D975F
:10290000E05CFF4F2191319180819181281B390B2F
:102910002F733070C9010895DC011C96ED91FC9174
:102920001D97E05CFF4F20813181E054F040DF01D2
:10293000AE5BBF4F8D919C9111972817390719F401
:102940002FEF3FEF07C08D919C91E80FF91F808119
:10295000282F30E0C9010895DC011C96ED91FC910F
:102960001D97E05CFF4F20813181E054F040DF0192
:10297000AE5BBF4F8D919C9111972817390719F4C1
:102980002FEF3FEF10C08D919C911197E80FF91F29
:1029900020818D919C91119701968F739070119663
:1029A0009C938E9330E0C9010895FC01868597853C
:1029B000DC01A05CBF4FFC01EE5BFF4F2D913C9111
:1029C00011978081918128173907C1F70895CF9316
:1029D000DF93EC01EE85FF85E05CFF4F20813181C4
:1029E000E054F0402F5F3F4F2F733070DF01AE5B3C
:1029F000BF4F8D919C91119728173907D1F3E05C57
:102A0000FF4F80819181E054F040E80FF91F60830F
:102A1000EE85FF85E05CFF4F31832083EE89FF89DF
:102A2000208181E090E00D8C02C0880F991F0A94EC
:102A3000E2F7282B208381E090E0DF91CF91089589
:102A40001F931092A9061092A80628EE33E040E0EA
:102A500050E02093AA063093AB064093AC06509307
:102A6000AD0667EB73E07093A7066093A60686E851
:102A700094E09093B3068093B2068AEC94E090932E
:102A8000B5068093B40685EC90E09093B7068093EA
:102A9000B60684EC90E09093B9068093B80680EC7B
:102AA00090E09093BB068093BA0681EC90E09093FF
:102AB000BD068093BC0686EC90E09093BF068093A1
:102AC000BE0614E01093C006B3E0B093C106A7E0C1
:102AD000A093C206F5E0F093C306E1E0E093C406DC
:102AE0001092C8061092C7062093C9063093CA06F2
:102AF0004093CB065093CC067093C6066093C506F0
:102B00008EE095E09093D2068093D10682E595E021
:102B10009093D4068093D3068DEC90E09093D606E4
:102B20008093D5068CEC90E09093D8068093D706DE
:102B300088EC90E09093DA068093D90689EC90E0D7
:102B40009093DC068093DB068EEC90E09093DE069B
:102B50008093DD061093DF06B093E006A093E106B4
:102B6000F093E206E093E3061092E7061092E60681
:102B70002093E8063093E9064093EA065093EB066B
:102B80007093E5066093E40686E995E09093F1067C
:102B90008093F0068AED95E09093F3068093F20619
:102BA00085ED90E09093F5068093F40684ED90E037
:102BB0009093F7068093F60680ED90E09093F906E7
:102BC0008093F80681ED90E09093FB068093FA06DF
:102BD00086ED90E09093FD068093FC061093FE0630
:102BE000B093FF06A0930007F0930107E09302075C
:102BF00010920607109205072093070730930807E5
:102C00004093090750930A077093040760930307E2
:102C10008EE196E09093100780930F0782E696E08E
:102C2000909312078093110785E391E09093140726
:102C30008093130784E391E0909316078093150720
:102C400080E391E0909318078093170781E391E068
:102C500090931A078093190786E391E090931C07DD
:102C600080931B0710931D07B0931E07A0931F07A7
:102C7000F0932007E09321071F910895CF93DF93EE
:102C80000E9454100E94CD07C0EBD2E10E941906A9
:102C90002097E1F30E94B012F9CF0895CF92DF920E
:102CA000EF92FF920F931F93CF93DF937C016B0101
:102CB0008A01C0E0D0E00FC0D6016D916D01D7014F
:102CC000ED91FC910190F081E02DC7011995C80F9D
:102CD000D91F015010400115110571F7CE01DF9188
:102CE000CF911F910F91FF90EF90DF90CF900895BB
:102CF000EF92FF920F931F938C01DC01ED91FC91F9
:102D00000190F081E02D6DE019957C01D801ED91E5
:102D1000FC910190F081E02DC8016AE019959C01B9
:102D20002E0D3F1DC9011F910F91FF90EF90089547
:102D3000EF92FF920F931F937C01DC01ED91FC91C8
:102D40000190F081E02D19958C01C7010E94781641
:102D5000080F191FC8011F910F91FF90EF90089560
:102D6000CF93DF93DB010D900020E9F71197A61BAD
:102D7000B70BEC01E881F9810280F381E02DAD0110
:102D80001995DF91CF9108954F925F927F928F9224
:102D90009F92AF92BF92CF92DF92EF92FF920F93EA
:102DA0001F93DF93CF93CDB7DEB7A1970FB6F894FB
:102DB000DEBF0FBECDBF2C01742ECB01223008F434
:102DC0002AE019A231E2C32ED12CCC0EDD1E822EB8
:102DD0009924AA24BB24672D752FA50194010E9474
:102DE0007A3979018A01C801B701A50194010E94CD
:102DF0003439472D461B0894C108D1084A3014F4D1
:102E0000405D01C0495CF6014083E114F104010515
:102E1000110521F07E2C5F2DC801DDCFC201B60166
:102E20000E94B016A1960FB6F894DEBF0FBECDBFBC
:102E3000CF91DF911F910F91FF90EF90DF90CF9096
:102E4000BF90AF909F908F907F905F904F9008952C
:102E5000CF92DF92EF92FF920F931F93CF93DF9366
:102E6000EC016A017B012115310541F4E881F9810A
:102E70000190F081E02D642F19951FC02A30310593
:102E8000D1F477FF17C0E881F9810190F081E02D3E
:102E90006DE219958C0144275527BA014C195D093B
:102EA0006E097F09CE012AE00E94C4169801280FFE
:102EB000391F04C02AE00E94C4169C01C901DF9199
:102EC000CF911F910F91FF90EF90DF90CF900895D9
:102ED000CF92DF92EF92FF920F931F936C017B01D1
:102EE0009A010027F7FC0095102FB801A7010E9456
:102EF00028178C01C6010E947816080F191FC801F7
:102F00001F910F91FF90EF90DF90CF9008950E9456
:102F1000B0160895EF92FF920F931F937C010E94C9
:102F2000B0168C01C7010E947816080F191FC8013E
:102F30001F910F91FF90EF9008952F923F924F9223
:102F40005F926F927F928F929F92AF92BF92CF9239
:102F5000DF92EF92FF920F931F93DF93CF93CDB742
:102F6000DEB73B014C0119012A016E897F89888DEA
:102F7000998D6A197B098C099D09621A730A840A62
:102F8000950AA40193010E943439E218F308040958
:102F90001509A80197010E949C392A0D3B1D4C1D63
:102FA0005D1DB901CA01CF91DF911F910F91FF9073
:102FB000EF90DF90CF90BF90AF909F908F907F90D9
:102FC0006F905F904F903F902F900895FC01138277
:102FD000128287EC93E091838083758364835783A7
:102FE00046837187608753874287158A15861486C2
:102FF0001786168621E0248B8FEF9FEF938B828BB1
:10300000918B808B268B08952F923F924F925F92E7
:103010006F927F928F929F92AF92BF92CF92DF92E8
:10302000EF92FF920F931F93DF93CF93CDB7DEB74D
:103030002E970FB6F894DEBF0FBECDBF9E878D874B
:103040001B015E834D83A701260171E0C72ED12CA1
:10305000C21AD30AC901880F991F66277727681BF0
:10306000790B7A8369836D807E800894610871088A
:1030700083E0882E912C8E0C9F1C790181E090E0DA
:103080009C838B83AA24BB2410E0D801A170B0706C
:10309000B887AF83FA013196FA87E987B801627081
:1030A00070707C876B8777C0D7FC0AC00894E108F2
:1030B000F10889819A8102969A838983C80ED91E64
:1030C0000894A11CB11CAB81BC811296BC83AB835C
:1030D000EF81F885EF2B41F1AD85BE85ED91FC9137
:1030E0001197B501620D731D4D815E814E195F0907
:1030F0009701220F331F89859A85280F391F008475
:10310000F185E02DCD0182011995AD85BE85ED914A
:10311000FC911197B701620D731D0084F185E02DBC
:10312000CD01A30194011995EB85FC85EF2B41F1AD
:10313000AD85BE85ED91FC911197B1016A197B09AE
:103140004D815E814E195F099701220F331F8985DA
:103150009A85280F391F0084F185E02DCD01820169
:103160001995AD85BE85ED91FC911197B1016E1950
:103170007F090084F185E02DCD01A301940119950B
:10318000EB81FC81CE0EDF1E08946108710862E0BD
:1031900070E0860E971EAE14BF040CF485CF2E96F9
:1031A0000FB6F894DEBF0FBECDBFCF91DF911F9158
:1031B0000F91FF90EF90DF90CF90BF90AF909F90D6
:1031C0008F907F906F905F904F903F902F900895D9
:1031D0006F927F928F929F92AF92BF92CF92DF9227
:1031E000EF92FF920F931F937C014B013A0159011B
:1031F0006801DC01ED91FC91421B530B220F331F40
:103200002F5F3F4F0084F185E02D1995C701B40170
:10321000A301950103E0EE24FF240E9404181F91EE
:103220000F91FF90EF90DF90CF90BF90AF909F9065
:103230008F907F906F9008952F923F924F925F9260
:103240006F927F928F929F92AF92BF92CF92DF92B6
:10325000EF92FF920F931F93DF93CF9300D00F92C3
:10326000CDB7DEB73C017C836B836A015901FA82DA
:10327000E982222433249801241B350B37FF03C035
:10328000309521953F4FC5014B815C81841B950B87
:1032900097FF03C0909581959F4F821793075CF429
:1032A00081E0282E312CC601CB80DC809C838B836F
:1032B000C80185015C018B819C81A816B90644F484
:1032C000C501AB80BC809C838B83C80186016C01E7
:1032D0002501AB81BC814A1A5B0A7801EC18FD0814
:1032E000F7FE04C0F094E194F108F394C016D106FF
:1032F00024F088248A94982C03C0B1E08B2E912C62
:10330000C20162E070E00E9467398B0125C0D301E1
:10331000ED91FC912114310441F00480F581E02D00
:10332000C301B6014B815C8107C00480F581E02DAB
:10333000C3016B817C81A60129813A8119950E19FF
:103340001F0917FF04C0C80CD91C040D151DEB8103
:10335000FC813196FC83EB834B815C81A416B5061E
:10336000B4F60F900F900F900F90CF91DF911F91B7
:103370000F91FF90EF90DF90CF90BF90AF909F9014
:103380008F907F906F905F904F903F902F90089517
:103390004F925F926F927F928F929F92AF92BF9265
:1033A000CF92DF92EF92FF920F931F936C015B011C
:1033B0004A0139012801DC01ED91FC910284F38579
:1033C000E02D87011995D601ED91FC91A4014150A2
:1033D0005040440D551D0284F385E02DC601B50112
:1033E00093011995D601ED91FC910084F185E02DB2
:1033F000C601B501A40192011995D601ED91FC9188
:103400000894A108B108A60CB71C0084F185E02D32
:10341000C601B501A401920119951F910F91FF906A
:10342000EF90DF90CF90BF90AF909F908F907F9064
:103430006F905F904F900895CF92DF92EF92FF923E
:103440000F931F93DC016B017801ED91FC918A01D0
:1034500001501040020F131F0680F781E02D9601E6
:1034600019951F910F91FF90EF90DF90CF900895E5
:10347000CF92DF92EF92FF920F931F93DC016A01CC
:10348000C9017801ED91FC9111979B0121503040C9
:10349000280F391F0680F781E02DCD01860119958F
:1034A0001F910F91FF90EF90DF90CF9008956F9252
:1034B0007F928F929F92AF92BF92CF92DF92EF92C4
:1034C000FF920F931F93CF93DF935C013A01690141
:1034D0004801EB01C60ED71E0DC0D501ED91FC9140
:1034E0000084F185E02DC501BE01A301940187018F
:1034F00019952196CC15DD0584F3DF91CF911F91AD
:103500000F91FF90EF90DF90CF90BF90AF909F9082
:103510008F907F906F900895EF92FF920F931F937B
:10352000FC017B01A081B181208531850285138555
:103530001E960D90BC91A02D60E070E040E050E040
:10354000FD0119951F910F91FF90EF9008952F9213
:103550003F924F925F926F927F928F929F92AF9223
:10356000BF92CF92DF92EF92FF920F931F93DF9360
:10357000CF93CDB7DEB72F970FB6F894DEBF0FBE4F
:10358000CDBF5C015E834D8318870F83FA86E98681
:10359000CB86DC0118968D919C9119976817790755
:1035A0000CF0A4C01A968D919C911B97481759074F
:1035B0000CF09CC0EC2DF0E0FF87EE87CF01880F68
:1035C000991F8E0F9F1F880F991F860F971F181620
:1035D00019060CF08BC0CF01F3E0880F991FFA9504
:1035E000E1F7840F951F181619060CF07FC085E0CF
:1035F000289FA00111245A8349832B011B011C829F
:103600005C81553011F480E005C0E981FA81EC5FFE
:10361000FD4F84912C863D866D807E8043011B8208
:10362000C82EDD2480FF1CC0D501ED91FC91BB8527
:10363000B13049F40480F581E02DC501B201A30148
:103640002F81388522C00684F785E02DC5016C8561
:103650007D85A4012E853F858901EF80F88423C0F4
:10366000E985FA852F813885E217F307E9F0D5015E
:10367000ED91FC91BB85B13051F40480F581E02DD2
:10368000C501B201A30129853A8519950DC00684AB
:10369000F785E02DC5016C857D85A4012E853F85CC
:1036A0008901E984FA841995EB81EF5FEB832E851C
:1036B0003F85820E931E0894611C711CE83021F036
:1036C000D594C7948C2DACCF3C813F5F3C834E8515
:1036D0005F85240E351E0894411C511C89819A81F6
:1036E00001969A838983363009F08ACF2F960FB6D8
:1036F000F894DEBF0FBECDBFCF91DF911F910F9128
:10370000FF90EF90DF90CF90BF90AF909F908F9001
:103710007F906F905F904F903F902F900895CF9241
:10372000EF92FF920F931F93CF93DF93EC01262F1D
:103730006A3061F42C8930E003E0220F331F0A95D0
:10374000E1F78E859F85820F931F37C06D30C9F1D9
:103750006C857D854E855F8508891989EA88FB8897
:10376000CC880E94A71A2C8986E0289FB0011124DA
:103770008C859D85680F791F7D876C878E8988234E
:1037800001F1422F50E08AEF9FEF9C01429FC00160
:10379000439F900D529F900D112428853985820FEB
:1037A000931F861797076CF413E0440F551F1A9563
:1037B000E1F78E859F85840F951F9F878E871D86D5
:1037C0001C8681E090E0DF91CF911F910F91FF90D7
:1037D000EF90CF900895FC017587648757874687DF
:1037E0000895FC01662309F461E0648B0895FC01EF
:1037F000738B628B718B608B08950895DC015896F2
:103800008C915897882329F06EBD0DB407FEFDCF2B
:10381000089530E840E050E070E0832F90E0862388
:1038200097235996ED91FC915A9796962C919697DD
:10383000892B21F08081822B808304C08081209598
:10384000282320835B96ED91FC915C97808197966D
:103850009C919797892B80835B96ED91FC915C9767
:10386000908197968C919797809589238083369540
:103870004F5F5F4F4830510581F608950F931F93B6
:103880008C01DC015F96ED91FC9190979081999667
:103890008C9199978095892380835D96ED91FC9119
:1038A0005E97908198968C91809589238083C8013A
:1038B0000E94FE1BD8015D96ED91FC915E97808180
:1038C00098969C91892B80831F910F9108950F9357
:1038D0001F938C01DC015F96ED91FC9190978081A4
:1038E00099969C919997892B80835D96ED91FC9197
:1038F0005E97908198968C91809589238083C801EA
:103900000E94FE1BD8015D96ED91FC915E9780812F
:1039100098969C91892B80831F910F910895CF9247
:10392000DF92EF92FF920F931F937C01162FC42E0C
:10393000D22E6AE20E943E1CC70160E00E94671C12
:10394000F70162A5610FC7010E94671CC70160E013
:103950000E94671CF70162A56D0DC7010E94671CDC
:10396000C7016BE20E943E1CC70160E00E94671C19
:10397000F70163A56C0DC7010E94671CC70160E0D9
:103980000E94671CF70163A5600FC7010E94671CB6
:10399000C7016CE20E943E1C1F910F91FF90EF90B7
:1039A000DF90CF900895FF920F931F938C01F62E16
:1039B000672FDC015F96ED91FC919097808199963D
:1039C0009C919997892B80835D96ED91FC915E97F0
:1039D000908198968C91809589238083C8010E945C
:1039E000FE1BC8016F2D0E94FE1BD8015D96ED9154
:1039F000FC915E97808198969C91892B80831F9182
:103A00000F91FF900895FF920F931F93CF93DF9331
:103A1000EC01F22E132F77FD2EC08885998568174B
:103A200079074CF557FD27C08A859B8548175907AC
:103A300014F5262F2F5F042F0F5FCE010E948F1CDD
:103A4000EF8DF8A1808199A5892B8083ED8DFE8D66
:103A5000908188A5809589238083CE01612F0E9463
:103A6000FE1BCE016F2D0E94FE1BED8DFE8D808111
:103A700098A5892B8083DF91CF911F910F91FF90A3
:103A80000895DF92EF92FF920F931F93CF93DF93EE
:103A9000EC01FB017901D02E88859985681779079B
:103AA000D4F52A853B8542175307ACF5C701840F2F
:103AB000951F281739071CF47901E41AF50A042F19
:103AC00001500E0DCE016E2F2E2F0E948F1CEF8DF8
:103AD000F8A1808199A5892B8083ED8DFE8D908141
:103AE00088A580958923808308C0CE01612F0E941C
:103AF000FE1BCE016D2D0E94FE1B0894E108F1080B
:103B00008FEFE8168FEFF80681F7ED8DFE8D80813F
:103B100098A5892B8083DF91CF911F910F91FF9002
:103B2000EF90DF900895DF92EF92FF920F931F9333
:103B3000CF93DF93EC01FA017901D02E28853985E6
:103B400062177307D4F58A859B8548175907ACF52A
:103B5000C701860F971F281739071CF47901E61A49
:103B6000F70A262F21502E0DCE014E2F0E2F0E9428
:103B70008F1CEF8DF8A1808199A5892B8083ED8D15
:103B8000FE8D908188A580958923808308C0CE0111
:103B9000612F0E94FE1BCE016D2D0E94FE1B08941A
:103BA000E108F1088FEFE8168FEFF80681F7ED8D49
:103BB000FE8D808198A5892B8083DF91CF911F9105
:103BC0000F91FF90EF90DF900895EF92FF920F9387
:103BD0001F93FC017B01A081B18120853185028585
:103BE00013851E960D90BC91A02D60E070E040E022
:103BF00050E0FD0119951F910F91FF90EF900895EE
:103C0000AF92BF92CF92DF92EF92FF920F931F93EA
:103C1000CF93DF936C015901E801DC0118962D91D7
:103C20003C911997621773070CF057C01A96ED91E3
:103C3000FC911B974E175F070CF04FC0C501860F14
:103C4000971F281739071CF45901A61AB70ACE0185
:103C5000840F951FE817F9071CF4EF01C41BD50B5F
:103C6000262F21502A0D042F01500C0FC6010E944F
:103C70008F1CD6015F96ED91FC919097808199966B
:103C80009C919997892B80835D96ED91FC915E972D
:103C9000908198968C918095892380838E010EC0A7
:103CA000C6016F2D0E94FE1BC6016E2D0E94FE1BD9
:103CB00021971C161D06A4F3015010401016110682
:103CC00014F4E501F6CFD6015D96ED91FC915E9777
:103CD000808198969C91892B8083DF91CF911F9151
:103CE0000F91FF90EF90DF90CF90BF90AF9008952D
:103CF0001F93CF93DF93EC01162F66E30E943E1CC7
:103D000013701D8B113081F0113028F01230A9F0A2
:103D10001330B1F523C08F89823019F4CE0160ECE5
:103D200014C0CE0168EC11C08F89823019F4CE0125
:103D300060EA1CC0CE0168EA19C08F89823019F48C
:103D4000CE0160E002C0CE0168E00E94671C80E8FE
:103D500090E09987888780EA90E010C08F89823050
:103D600019F4CE0160E602C0CE0168E60E94671C2D
:103D700080EA90E09987888780E890E09B878A872F
:103D8000DF91CF911F910895662311F460E201C085
:103D900061E20E943E1C0895AF92BF92CF92DF92E3
:103DA000EF92FF920F931F93CF93DF935C01FB0180
:103DB000EB012196D49031C08E010F5F1F4FFE01A1
:103DC0006491C5010E943E1C78010894E11CF11C1D
:103DD000F801C4900C2D0F77E701102F08C0FE01E9
:103DE0002196E491C5016E2F0E94671C115011238A
:103DF000B1F7E701C00FD11DC7FE0EC0FE018491CF
:103E0000682F70E06F3F710511F464EF71E0219647
:103E100080E090E00E94FB0FDA94DD2069F6DF91EC
:103E2000CF911F910F91FF90EF90DF90CF90BF90B7
:103E3000AF9008950F931F93CF93DF93EC018B0105
:103E40001BA61AA68AA161E00E94B61089A161E0B2
:103E50000E94B610E9A14E2F50E0FA01EE5CFE4F31
:103E6000E491F0E0EE0FFF1FE250FF4F8591949137
:103E70009E8F8D8FEAA12E2F30E0F901EE5CFE4F70
:103E8000E491F0E0EE0FFF1FE250FF4F8591949117
:103E900098A38F8F48585E4FFA01849188A72858BD
:103EA0003E4FF901849189A7888D882361F00E9493
:103EB0004E3280E00E943D3281E00E942F3280E04D
:103EC0000E9438323DC08DA161E00E94B6108CA1E5
:103ED00061E00E94B610EDA14E2F50E0FA01EE5CB9
:103EE000FE4FE491F0E0EE0FFF1FE250FF4FA5916F
:103EF000B491BC8FAB8FECA12E2F30E0F901EE5CBA
:103F0000FE4FE491F0E0EE0FFF1FE250FF4F85916E
:103F100094919A8F898F48585E4FFA0194919FA38C
:103F200028583E4FF90184918EA38C919095982347
:103F30009C93E98DFA8D90818EA180958923808351
:103F4000ED8DFE8D908188A58095892380838BA13E
:103F5000882309F161E00E94B6108BA161E00E9404
:103F6000691164EF71E080E090E00E94FB0F8BA18B
:103F700060E00E94691164EF71E080E090E00E94CF
:103F8000FB0F8BA161E00E94691164EF71E080E09A
:103F900090E00E94FB0F0115110521F0CE01B80140
:103FA0000E94CC1EDF91CF911F910F9108951F9316
:103FB000CF93DF93EC01162F6FEF76E00E941A1F6C
:103FC000112351F4CE016AE377E00E94CC1E82E017
:103FD0008AA781E08BA705C0CE0167E477E00E9445
:103FE000CC1ECE0164E577E00E94CC1E123041F475
:103FF000CE0166E30E943E1CCE0160EC0E94671C6D
:104000001F8BDF91CF911F910895DF92EF92FF9266
:104010000F931F938C01F62EE42ED22E60E870E0F1
:1040200040EA50E00E94E6178FED93E0F80191839B
:104030008083F1A2E2A2D3A281E0808F15A214A214
:104040001F910F91FF90EF90DF90089582E090E034
:10405000A0E0B0E08093220790932307A093240769
:10406000B093250710923907109243071092420728
:1040700087EF93E0909341078093400710924507A4
:1040800010926207109263071092660710926807F9
:1040900008952F923F924F925F926F927F928F92EC
:1040A0009F92AF92BF92CF92DF92EF92FF920F93C7
:1040B0001F93DF93CF93CDB7DEB7C754D0400FB671
:1040C000F894DEBF0FBECDBF582E492EFB013A013A
:1040D000190180A191A1998B888B27EF33E03F874D
:1040E0002E8782A18A8B83A18B8B84A195A1A6A107
:1040F000B7A18C8B9D8BAE8BBF8B80A591A5A2A504
:10410000B3A5888F998FAA8FBB8F84A595A5A6A5E7
:10411000B7A58C8F9D8FAE8FBF8F80A988A381A9F3
:1041200092A9A3A9B4A989A39AA3ABA3BCA385A967
:1041300096A9A7A9B0AD8DA39EA3AFA3B8A781AD43
:1041400092AD9AA789A71EA61DA63CA72BA718AAC1
:104150007A018E01025F1F4F3BE2A32EB12CAC0E01
:10416000BD1E4E010894811C911C35C0D7018C9155
:104170008F3221F40894E11CF11C2DC0422F4E19FE
:104180004D3008F04CE0C42EDD24C401B701A60177
:104190000E944E36F401EC0DFD1D1082C5010E94F7
:1041A0001B27C501B801A40121E00E94632C8823CC
:1041B00051F4E52DF42D1382128287EF93E0918361
:1041C0008083158266C0EC0CFD1CC8010E941B2771
:1041D000C50158018C01C7016FE270E00E944336AF
:1041E0009C01009719F6E618F708F101F182E082C8
:1041F000E52DF42DD80112968D919C911397938300
:10420000828387EF93E09183808314968C91149737
:10421000848315968C911597858316962D913D91E3
:104220004D915C91199726833783408751871A9661
:104230002D913D914D915C911D9722873387448745
:1042400055871E962D913D914D915C9151972687F2
:104250003787408B518B52968C915297828B539615
:104260002D913D914D915C915697238B348B458BCD
:10427000568B57962D913D914D915C915A97278B76
:10428000308F418F528F5B968D919C915C97948F6C
:10429000838F852D942DC95BDF4F0FB6F894DEBF59
:1042A0000FBECDBFCF91DF911F910F91FF90EF9087
:1042B000DF90CF90BF90AF909F908F907F906F9046
:1042C0005F904F903F902F9008959F92AF92BF9232
:1042D000CF92DF92EF92FF920F931F93DF93CF93D2
:1042E000CDB7DEB7C657D0400FB6F894DEBF0FBECD
:1042F000CDBFC82E992E8A01D22E43E0A42EB12C18
:10430000AC0EBD1EC501A8019E012F5F3F4F0E944C
:104310004920E980FA80E00EF11EF701808147EF25
:1043200053E02885882309F03FC08D819E819BA39F
:104330008AA359A348A38F818CA32DA389859A852D
:10434000AB85BC858EA39FA3A8A7B9A78D859E85A5
:10435000AF85B8898AA79BA7ACA7BDA789899A8989
:10436000AB89BC898EA79FA7A8ABB9AB8D898AAB57
:104370008E899F89A88DB98D8BAB9CABADABBEAB45
:104380008A8D9B8DAC8DBD8D8FAB98AFA9AFBAAF29
:104390008E8D9F8D9CAF8BAF8C2D992DBE01605E55
:1043A0007F4F48ED52E09FC0FE01FF9611821082C0
:1043B0005EAF4DAFFE01EE5BFF4F10822223A9F0EE
:1043C0002250CE01CD96223048F460E477E0A70178
:1043D0002D2D0E94632C882381F407C0B501A7010D
:1043E0002D2D0E94632C882329F48C2D992D0E9459
:1043F000BB337BC0C5010E941B27F6E0DF2259F0CA
:10440000FE01E05BFF4F4081518162817381CE01EB
:10441000CD960E940B269E01265A3F4FFE01FF9625
:1044200080819181F9019383828387EF93E0918367
:104430008083FE01EF5BFF4F8081F9018483FE01E1
:10444000EE5BFF4F8081F9018583FE01ED5BFF4F3D
:1044500080819181A281B381F90186839783A087AE
:10446000B187FE01E95BFF4F80819181A281B38119
:10447000F90182879387A487B587FE01E55BFF4F2B
:1044800080819181A281B381F90186879787A08B72
:10449000B18BFE01E15BFF4F8081F901828BFE0150
:1044A000E05BFF4F80819181A281B381F901838B11
:1044B000948BA58BB68BFE01EC5AFF4F80819181C6
:1044C000A281B381F901878B908FA18FB28FFE01FA
:1044D000E85AFF4F80819181F901948F838F8C2D51
:1044E000992DB901A7010E94C5348C2D992DCA5868
:1044F000DF4F0FB6F894DEBF0FBECDBFCF91DF9177
:104500001F910F91FF90EF90DF90CF90BF90AF90F1
:104510009F900895EF92FF920F931F93CF93DF9395
:10452000EC01462F8C01055C1F4FC80161E00E9421
:10453000F7248823D1F0FC2EED2ECE01B80141E006
:104540000E94042E882339F4CE01B80140E00E9475
:10455000042E882351F0CE014E966F2D7E2D0E94A1
:104560005129882319F081E001C080E0DF91CF91CB
:104570001F910F91FF90EF900895FC01673020F09C
:1045800086E1858380E00895262F30E060FD02C03B
:10459000663019F48DB58E7F02C08DB581608DBDFA
:1045A0008CB58C7F8CBD4CB522FD02C090E001C063
:1045B00092E036952795822F8170842B892B8CBDB4
:1045C00081E00895FF920F931F93CF93DF938B01A8
:1045D0000E94ED0FEB01FF24FA94FEBC0DB407FE20
:1045E000FDCF8EB58F3F11F481E008C00E94ED0F22
:1045F0006C1B7D0B6017710780F380E0DF91CF911A
:104600001F910F91FF900895FC01848160E00E944A
:1046100069110895FC01848161E00E946911089587
:10462000DC016EBDFA0120E030E00DB407FEFDCFE5
:1046300080818EBD0DB407FEFDCF81818EBD2E5FC2
:104640003F4F329682E02030380779F70DB407FEED
:10465000FDCF8FEF8EBD0DB407FEFDCF8FEF8EBD6A
:104660000DB407FEFDCF8FEF8EBD0DB407FEFDCF5D
:104670008EB51A968C931A978F71853011F481E05C
:10468000089581E115968C931597CD010E940A2318
:1046900080E00895FF920F931F93CF93DF93EC0177
:1046A0000E94ED0F8B01FF24FA9409C00E94ED0FC8
:1046B000601B710B6D52714010F08FE00DC0FEBC9D
:1046C0000DB407FEFDCF8EB58A878F3F79F38E3FFD
:1046D00011F481E006C08DE08D83CE010E940A2393
:1046E00080E0DF91CF911F910F91FF900895CF93BC
:1046F000DF93EC018E818823D1F08FEF8EBD2F8167
:1047000038854FEF04C00DB407FEFDCF4EBD2F5FBF
:104710003F4FC901019781509240A8F338872F83FA
:104720000DB407FEFDCFCE010E940A231E82DF9149
:10473000CF910895DF92EF92FF920F931F93CF9343
:10474000DF93EC01D62E79018A010E947723CE01F6
:104750000E940423CE016CE271E00E94E2228D2DC2
:1047600080648EBD0DB407FEFDCF28E130E0D80196
:10477000C701022E04C0B695A795979587950A9410
:10478000D2F78EBD0DB407FEFDCF285030408FEF1D
:10479000283F380761F7DD2011F485E906C088E07D
:1047A000D81611F487E801C08FEF8EBD0DB407FE57
:1047B000FDCF90E02FEF2EBD0DB407FEFDCF8EB5DF
:1047C00087FF02C09150B9F78A87DF91CF911F917F
:1047D0000F91FF90EF90DF900895CF92DF92EF92CC
:1047E000FF920F931F93CF93DF93EC017A018B011C
:1047F0006901411551056105710511F482E137C068
:104800008B85833039F029E0EE0CFF1C001F111F4F
:104810002A95D1F7CE0168E1A80197010E949A2359
:10482000882311F084E023C0CE016EEFA6010E9420
:1048300010238823E9F0CE0168E572E00E94E222AD
:10484000882311F485E113C0CE016DE020E030E053
:1048500040E050E00E949A23882341F48FEF8EBD00
:104860000DB407FEFDCF8EB5882379F084E18D83EA
:10487000CE010E940A2380E0DF91CF911F910F911A
:10488000FF90EF90DF90CF900895CE010E940A2311
:1048900081E0F2CF8F929F92AF92BF92CF92DF9240
:1048A000EF92FF920F931F93CF93DF93EC015A0186
:1048B0006B0149010115110509F47BC0C801820F84
:1048C000931F8150924008F06FC08E81882371F051
:1048D00088819981AA81BB81481759076A077B079C
:1048E00029F48F8198858816990618F5A882B982CF
:1048F000CA82DB828B85833039F069E0AA0CBB1C4D
:10490000CC1CDD1C6A95D1F7CE0161E1A6019501B1
:104910000E949A23882319F083E08D8345C0CE013D
:104920000E944A23882309F43FC018861F8281E031
:104930008E838FEF8EBD8F8198852FEF05C00DB4CC
:1049400007FEFDCF2EBD019688159905C0F3988707
:104950008F83D801119720E030E09FEF0BC00DB49A
:1049600007FEFDCF8EB5F701E20FF31F80839EBDDA
:104970002F5F3F4F2A173B0790F30DB407FEFDCF83
:104980008EB5AE0DBF1D8C932F813885200F311F42
:1049900038872F838985882319F02050324048F0CA
:1049A000CE010E94772305C0CE010E940A2380E039
:1049B00001C081E0DF91CF911F910F91FF90EF90A7
:1049C000DF90CF90BF90AF909F908F900895EF921F
:1049D000FF920F931F93790120E030E000E012E096
:1049E0000E944A241F910F91FF90EF900895BF926B
:1049F000CF92DF92EF92FF920F931F93CF93DF93AB
:104A0000EC01B62E1B8619861E821D824C830E94E5
:104A1000ED0F6B018C8161E00E94B610CE010E9407
:104A20000A2382E360E00E94B61083E361E00E9403
:104A3000B61084E361E00E94B61085E361E00E9455
:104A4000B61085E361E00E94691183E58CBD8DB5E8
:104A50008E7F8DBD80E09FEF9EBD0DB407FEFDCF24
:104A60008F5F8A30C9F7CE010E94042309C00E94DB
:104A7000ED0F6C197D09615D774010F081E05EC03B
:104A8000CE0160E020E030E040E050E00E949A2358
:104A9000182F8A87813059F7CE0168E02AEA31E081
:104AA00040E050E00E949A2382FF02C01B8711C0A1
:104AB00080E02FEF2EBD0DB407FEFDCF9EB58F5FBA
:104AC0008430C1F79A879A3A11F082E037C082E0C9
:104AD0008B878B85823021F0EE24FF2487010FC065
:104AE000E12CF12C012DF0E41F2F09C00E94ED0FE5
:104AF0006C197D09615D774010F088E01FC0CE0120
:104B000067E320E030E040E050E00E949A23CE01CD
:104B100069E2A80197010E949A238A87882331F7C6
:104B20008B85823031F5CE016AE320E030E040E051
:104B300050E00E949A23882339F086E08D83CE01CD
:104B40000E940A2380E01CC08FEF8EBD0DB407FECB
:104B5000FDCF8EB5807C803C11F483E08B8780E0B4
:104B60009FEF9EBD0DB407FEFDCF2EB58F5F833046
:104B7000C1F7CE010E940A23CE016B2D0E94BD22F7
:104B8000DF91CF911F910F91FF90EF90DF90CF9029
:104B9000BF900895CF93DF93EC01DB0180E090E0BC
:104BA00020E2FD01E80FF91F208301968B3091056B
:104BB000C1F757E040E021C02E3219F086EE97E0B1
:104BC00007C05A3019F15AE048E017C03217F1F027
:104BD000FC01019634913323C9F75417B8F0213200
:104BE000A8F02F3798F4822F81568A3108F420528A
:104BF000FD01E40FF11D20834F5F29912223E1F68F
:104C000090E08C91803219F091E001C090E0892F02
:104C1000DF91CF9108956F927F928F929F92AF9282
:104C2000BF92CF92DF92EF92FF920F931F93CF9399
:104C3000DF93EC017A018B012D81222309F480C0DE
:104C40008B899C89AD89BE8984179507A607B7070C
:104C500008F476C085C0E114F1040105110549F49A
:104C60001E821F82188619861A861B861C861D8640
:104C700065C02A853B854C855D85EB8DFC8D8585E2
:104C800090E00996215030404040504039014A019F
:104C9000082E04C096948794779467940A94D2F768
:104CA0002F5F3F4F4F4F5F4F0894E108F108010914
:104CB00011095701680104C0D694C794B794A7940A
:104CC0008A95D2F70894E11CF11C011D111DA61450
:104CD000B704C804D90428F0211531054105510550
:104CE00049F48F89988DA98DBA8D8E839F83A8876B
:104CF000B98716C0A618B708C808D90811C04E81D0
:104D00005F81688579858B8D9C8D94010E94E52F4C
:104D10000894A108B108C108D108882331F410C053
:104D200086E0882E912C8C0E9D1EA114B104C10426
:104D3000D10429F7EA86FB860C871D8781E001C034
:104D400080E0DF91CF911F910F91FF90EF90DF9066
:104D5000CF90BF90AF909F908F907F906F9008956D
:104D6000223009F078CFE6CFCF93DF93EC01462FC6
:104D70006E857F85888999890E94C92D882319F4B9
:104D800020E030E00AC08A89282F30E095E0220F29
:104D9000331F9A95E1F72359384FC901DF91CF911D
:104DA00008950F931F93CF93DF938C01FC018581AE
:104DB0008823D9F1848187FF35C0C80161E00E9452
:104DC000B426EC01009789F1F8018581823040F426
:104DD00083899489A589B6898C8F9D8FAE8FBF8F6B
:104DE000F8018789908D9B8F8A8F8789908DA18DFF
:104DF000B28DCD01AA27BB279D8B8C8BE0916B07D1
:104E0000F0916C07309751F0BE016A5E7F4FCE0182
:104E100048961995888D998D9B8B8A8BF801848192
:104E20008F7784830E946A2D01C080E0DF91CF914B
:104E30001F910F910895CF93DF93EC010E94D1262B
:104E4000882311F01D8281E0DF91CF9108956F9248
:104E50007F928F929F92AF92BF92CF92DF92EF920A
:104E6000FF920F931F93DF93CF9300D00F92CDB794
:104E7000DEB77C015A016B01DC0115968C91159708
:104E8000813009F08FC014968C9181FF8BC09EC039
:104E90000097A105B10511F481E085C0F701628496
:104EA000738484849584C701B601A5010E940B26F2
:104EB000882309F477C0D7015B968D919C915C970C
:104EC000A114B104C104D10489F457964D915D91A8
:104ED0006D917C915A970E945830882309F462C0E2
:104EE000F701178A108E118E128E3DC0D7011696CB
:104EF0004D915D916D917C9119979E012F5F3F4F70
:104F00000E94E52F882309F44DC0D7015B96ED91EF
:104F1000FC915C9749815A816B817C8187898031C2
:104F200029F088EF9FEFAFEFBFE004C088EF9FEF5D
:104F3000A0E0B0E0481759076A077B07A0F4CF014B
:104F40000E945830882371F1F701468157816085AE
:104F50007185838D948D0FEF1FEF2FEF3FE00E943F
:104F6000492F8823F9F0D7015396AD92BD92CD9287
:104F7000DC92569714968C911497806814968C93B3
:104F8000C7010E94D126882369F0B601A5016A14E1
:104F90007B048C049D0410F4B401A301C7010E949A
:104FA0000B2601C080E00F900F900F900F90CF91D3
:104FB000DF911F910F91FF90EF90DF90CF90BF9006
:104FC000AF909F908F907F906F900895F7018389A5
:104FD0009489A589B68984179507A607B70708F0AD
:104FE00057CFE0CF2F923F924F925F926F927F9276
:104FF0008F929F92AF92BF92CF92DF92EF92FF92E9
:105000000F931F93CF93DF93EC012A018D818823A7
:1050100009F4C6C08C8180FFC3C0D8C025014E18DA
:105020005F084B0176E0272E312C2C0E3D1E3201FD
:10503000B1C02A853B854C855D856FEFA62E61E06A
:10504000B62EA222B3228D8179018A0199E01695AC
:105050000795F794E7949A95D1F7EB8DFC8D823004
:1050600049F4428D538D648D758D4E0D5F1D601F0B
:10507000711F3FC0D480DA94DE20A114B104D9F4AA
:10508000DD20C9F4211531054105510549F48F8909
:10509000988DA98DBA8D8E839F83A887B9870BC001
:1050A0004E815F8168857985CF0191010E94E52F4E
:1050B000882309F475C0EB8DFC8D4E815F81688576
:1050C00079854250504060407040058404C0440FD0
:1050D000551F661F771F0A94D2F786859785A0898A
:1050E000B189480F591F6A1F7B1F4D0D511D611D4E
:1050F000711D80E092E08A199B096301861597056E
:1051000008F46C018C8186FD06C080E0C81682E040
:10511000D80609F073C08091AB039091AC03A091C5
:10512000AD03B091AE03481759076A077B0709F42E
:1051300065C080916D0990916E0995018601740199
:105140000E944A24882361F18C0C9D1C12C0950199
:105150002359384FA9014C0D5D1DD401F90102C03E
:1051600081918D93E417F507D9F7E21BF30B8E0EAF
:105170009F1E960140E050E08A859B85AC85BD85E9
:10518000820F931FA41FB51F8A879B87AC87BD879B
:105190006C187D086114710409F04BCFA20102C0A4
:1051A0004FEF5FEFCA01DF91CF911F910F91FF90F9
:1051B000EF90DF90CF90BF90AF909F908F907F90B7
:1051C0006F905F904F903F902F900895AB88BC8870
:1051D000CD88DE88EA84FB840C851D859A0140E039
:1051E00050E0D601C5018E199F09A00BB10B8217A3
:1051F0009307A407B50708F411CF13CFCB01BA0169
:1052000040E00E94C92D882309F0A1CFC9CFCF92D9
:10521000DF92EF92FF920F931F93DF93CF930F9242
:10522000CDB7DEB76C01FC018581823070F0E2847D
:10523000F38404851585C601BE016F5F7F4F41E091
:1052400050E00E94F227019769F020E030E0C901A8
:105250000F90CF91DF911F910F91FF90EF90DF9012
:10526000CF900895F60182859385A485B5854F96E4
:10527000A11DB11D82879387A487B587F5E0169598
:105280000795F794E794FA95D1F78E2D8F70282F14
:1052900030E0E5E0220F331FEA95E1F72359384F5C
:1052A000D6CF0F931F93CF93DF93EC018B018D81AA
:1052B000882309F041C0FB0187898031B1F482E085
:1052C0008D831F8A188E198E1A8E808D918DA0E085
:1052D000B0E045E0880F991FAA1FBB1F4A95D1F780
:1052E0008B8B9C8BAD8BBE8B15C0803229F583E0F8
:1052F0008D83FB01428D538D648D758D4F8B588F3F
:10530000698F7A8F9E012D5E3F4FC8010E94B13098
:10531000882391F01C8F0B8F81E08C831E821F826B
:10532000188619861A861B861C861D861E861F8671
:10533000188A198A1A8A01C080E0DF91CF911F91E3
:105340000F9108951F93CF93DF93EC01142FE62F55
:10535000F0E075E0EE0FFF1F7A95E1F7E359F84FA3
:105360008385817121F0842F827409F054C06A8B87
:105370008091AB039091AC03A091AD03B091AE03CB
:105380008E879F87A88BB98B84899589A0E0B0E030
:10539000BC0155274427828D938DA0E0B0E0482BB7
:1053A000592B6A2B7B2B4F8B588F698F7A8F838574
:1053B00090E088719070009751F4848D958DA68D42
:1053C000B78D8B8B9C8BAD8BBE8B81E00CC04097D7
:1053D00011F59E012D5E3F4F8B8D9C8D0E94B1304B
:1053E0008823C9F084E08D83812F8F708C831E8287
:1053F0001F82188619861A861B861C861D8616FD36
:1054000002C081E009C0CE0140E050E060E070E001
:105410000E94272701C080E0DF91CF911F9108955E
:10542000CF93DF93EC019C012A5F3F4F8B8D9C8DC6
:1054300041E050E060E070E00E9420318823A1F05C
:105440008F89988DA98DBA8D0097A105B10559F462
:105450008E819F81A885B9858F8B988FA98FBA8FF0
:105460008C8180688C8381E0DF91CF9108952F92A9
:105470003F924F925F927F928F929F92AF92BF9294
:10548000CF92DF92EF92FF920F931F93DF93CF9310
:1054900000D000D0CDB7DEB76C01162F072F5E838A
:1054A0004D83DC0115968C911597813009F070C100
:1054B00014968C9181FF6CC18EC1F6014389548989
:1054C0006589768982859385A485B5858417950736
:1054D000A607B70731F0C6010E940B26882309F4FE
:1054E00057C1812F902F9C0129012D803E8017C12B
:1054F000D6015B96ED91FC915C97DA01C90119E048
:10550000B695A795979587951A95D1F774807A9453
:1055100078227FEF872E71E0972E822293227720C8
:1055200009F04EC08114910409F04AC0D6011696C4
:105530004D915D916D917C911997411551056105D2
:10554000710581F457968D919D910D90BC91A02D80
:105550000097A105B10549F1F60186839783A087DD
:10556000B1872EC0CF019E012F5F3F4F0E94E52FD4
:10557000882309F414C129813A814B815C81D601C9
:105580005B96ED91FC915C978789803129F088EFDB
:105590009FEFAFEFBFE004C088EF9FEFA0E0B0E067
:1055A000281739074A075B0730F0C6010E94102A06
:1055B000882331F4EDC0F601268337834087518775
:1055C00080E092E08819990951018215930508F449
:1055D0005C01D6015B96ED91FC915C971696ED907F
:1055E000FD900D911C9119978EEF9FEFAFEFBFEFDC
:1055F000E80EF91E0A1F1B1F058404C0EE0CFF1CD9
:10560000001F111F0A94D2F786859785A089B1895A
:10561000E80EF91E0A1F1B1FE70CF11C011D111DCE
:1056200090E0A91692E0B90651F58091AB039091F4
:10563000AC03A091AD03B091AE038E159F05A007FA
:10564000B10761F48FEF9FEFAFEFBFEF8093AB0334
:105650009093AC03A093AD03B093AE0380916D091A
:1056600090916E09B801A70192010E94ED23882351
:1056700009F48EC0A0E0B2E04A0E5B1E3EC0811469
:10568000910409F5F6012285338544855585838982
:105690009489A589B689281739074A075B0798F0C6
:1056A0000E946A2D882309F473C0E092AB03F09244
:1056B000AC030093AD031093AE0380916F0981603A
:1056C00080936F0908C0C801B70141E00E94C92D4D
:1056D000882309F45DC094012359384FA9014A0D6C
:1056E0005B1DD201F90102C08D918193E417F5078A
:1056F000D9F7E21BF30B4E0E5F1E2A183B089501EB
:1057000040E050E0F60182859385A485B585820F3F
:10571000931FA41FB51F82879387A487B587D601DF
:105720001A962D913D914D915C911D972114310454
:1057300009F0DECE53968D919D910D90BC91A02DD8
:1057400082179307A407B50748F4F601238B348B1F
:10575000458B568B84818068848311C080916B0750
:1057600090916C07892B59F08D819E81892B39F09E
:10577000D60114968C911497806814968C93F60138
:10578000848183FF0EC0C6010E94D126882349F47C
:1057900081E090E0D60113969C938E9312971E821F
:1057A0001D828D819E8126960FB6F894DEBF0FBEB6
:1057B000CDBFCF91DF911F910F91FF90EF90DF90C0
:1057C000CF90BF90AF909F908F907F905F904F90C1
:1057D0003F902F90089582FD70CE83CEDF93CF93BC
:1057E0000F92CDB7DEB76983BE016F5F7F4F41E097
:1057F00050E00E94372A0F90CF91DF910895DF92F9
:10580000EF92FF920F931F93CF93DF93EC010E94CF
:10581000102A882309F44EC0EB8DFC8DEE80FF80AA
:10582000088519858EEF9FEFAFEFBFEFE80EF91EE9
:105830000A1F1B1F058404C0EE0CFF1C001F111F54
:105840000A94D2F786859785A089B189E80EF91E5A
:105850000A1F1B1FD4800894E108F10801091109EF
:105860000BC0C801B7016D0D711D811D911D0E94F6
:10587000A52D8823F9F0DA94DD2099F7EB8DFC8DC6
:1058800020E032E040E050E0058404C0220F331FE6
:10589000441F551F0A94D2F78B899C89AD89BE8914
:1058A000820F931FA41FB51F8B8B9C8BAD8BBE8B60
:1058B00081E001C080E0DF91CF911F910F91FF90B7
:1058C000EF90DF9008956F927F928F929F92AF92A8
:1058D000BF92CF92DF92EF92FF920F931F93DF93CD
:1058E000CF93CDB7DEB72B970FB6F894DEBF0FBEC0
:1058F000CDBF5C016B01822EDC0115968C91882353
:1059000009F0D2C0CA018E010F5F1F4FB8010E947B
:10591000CA25882309F4C8C0F601838D948DD5016A
:105920005C969C938E935B971682178210861186E5
:10593000D6011A961D921D921D921C921D979924B4
:10594000380141C0C6010E940729FC01009709F4F3
:10595000ABC085E016950795F794E7948A95D1F743
:105960001E2D1F708081882311F0853ED1F499206F
:1059700091F4D50152961C9352972091AB0330912C
:10598000AC034091AD035091AE031E962D933D9311
:105990004D935C9351978081882399F49924939433
:1059A00021C0C301BF014BE050E00E943636009792
:1059B00051F4882D8073803309F476C0C501612FBE
:1059C0006FC099249394F601E284F38404851585CD
:1059D00083899489A589B689E816F9060A071B0701
:1059E00008F4B0CF882D8271823109F05DC0992012
:1059F00041F0C50161E00E94B4268C01009789F452
:105A000053C0D60115968C91823009F44DC0C60161
:105A10000E94FF2B882309F447C0F501128A0DE686
:105A200017E080E2D8011D928A95E9F7D801FE01BE
:105A300031968BE001900D928150E1F7E0916B0778
:105A4000F0916C07309739F0B801625F7F4FC80161
:105A50004096199509C081E298E2F801918B808BFC
:105A600080E098E097878687D80150968D919C9129
:105A7000519753969C938E93529759969C938E93DD
:105A800058971E968D919C911F9757969C938E9335
:105A900056970E946A2D882339F0C501F501628965
:105AA000482D0E94A22901C080E02B960FB6F894E1
:105AB000DEBF0FBECDBFCF91DF911F910F91FF9041
:105AC000EF90DF90CF90BF90AF909F908F907F909E
:105AD0006F90089580916F09882399F14091AB03ED
